{"abi":[{"type":"constructor","inputs":[],"stateMutability":"nonpayable"},{"type":"function","name":"PAUSED_UPDATE_OPERATOR_SET","inputs":[],"outputs":[{"name":"","type":"uint8","internalType":"uint8"}],"stateMutability":"view"},{"type":"function","name":"PAUSED_UPDATE_STATE_ROOT","inputs":[],"outputs":[{"name":"","type":"uint8","internalType":"uint8"}],"stateMutability":"view"},{"type":"function","name":"THRESHOLD_DENOMINATOR","inputs":[],"outputs":[{"name":"","type":"uint128","internalType":"uint128"}],"stateMutability":"pure"},{"type":"function","name":"aggregator","inputs":[],"outputs":[{"name":"","type":"address","internalType":"address"}],"stateMutability":"view"},{"type":"function","name":"forceOperatorSetUpdate","inputs":[{"name":"message","type":"tuple","internalType":"struct OperatorSetUpdate.Message","components":[{"name":"id","type":"uint64","internalType":"uint64"},{"name":"timestamp","type":"uint64","internalType":"uint64"},{"name":"operators","type":"tuple[]","internalType":"struct RollupOperators.Operator[]","components":[{"name":"pubkey","type":"tuple","internalType":"struct BN254.G1Point","components":[{"name":"X","type":"uint256","internalType":"uint256"},{"name":"Y","type":"uint256","internalType":"uint256"}]},{"name":"weight","type":"uint128","internalType":"uint128"}]}]}],"outputs":[],"stateMutability":"nonpayable"},{"type":"function","name":"getApk","inputs":[],"outputs":[{"name":"","type":"tuple","internalType":"struct BN254.G1Point","components":[{"name":"X","type":"uint256","internalType":"uint256"},{"name":"Y","type":"uint256","internalType":"uint256"}]}],"stateMutability":"view"},{"type":"function","name":"getOperatorWeight","inputs":[{"name":"pubkeyHash","type":"bytes32","internalType":"bytes32"}],"outputs":[{"name":"","type":"uint128","internalType":"uint128"}],"stateMutability":"view"},{"type":"function","name":"getQuorumThreshold","inputs":[],"outputs":[{"name":"","type":"uint128","internalType":"uint128"}],"stateMutability":"view"},{"type":"function","name":"getStateRoot","inputs":[{"name":"rollupId","type":"uint32","internalType":"uint32"},{"name":"blockHeight","type":"uint64","internalType":"uint64"}],"outputs":[{"name":"","type":"bytes32","internalType":"bytes32"}],"stateMutability":"view"},{"type":"function","name":"getStorageValue","inputs":[{"name":"message","type":"tuple","internalType":"struct StateRootUpdate.Message","components":[{"name":"rollupId","type":"uint32","internalType":"uint32"},{"name":"blockHeight","type":"uint64","internalType":"uint64"},{"name":"timestamp","type":"uint64","internalType":"uint64"},{"name":"nearDaTransactionId","type":"bytes32","internalType":"bytes32"},{"name":"nearDaCommitment","type":"bytes32","internalType":"bytes32"},{"name":"stateRoot","type":"bytes32","internalType":"bytes32"}]},{"name":"proofParams","type":"tuple","internalType":"struct SFFLRegistryBase.ProofParams","components":[{"name":"target","type":"address","internalType":"address"},{"name":"storageKey","type":"bytes32","internalType":"bytes32"},{"name":"stateTrieWitness","type":"bytes","internalType":"bytes"},{"name":"storageTrieWitness","type":"bytes","internalType":"bytes"}]}],"outputs":[{"name":"","type":"bytes32","internalType":"bytes32"}],"stateMutability":"view"},{"type":"function","name":"getTotalWeight","inputs":[],"outputs":[{"name":"","type":"uint128","internalType":"uint128"}],"stateMutability":"view"},{"type":"function","name":"initialize","inputs":[{"name":"quorumThreshold","type":"uint128","internalType":"uint128"},{"name":"initialOwner","type":"address","internalType":"address"},{"name":"_aggregator","type":"address","internalType":"address"},{"name":"_pauserRegistry","type":"address","internalType":"contract IPauserRegistry"}],"outputs":[],"stateMutability":"nonpayable"},{"type":"function","name":"nextOperatorUpdateId","inputs":[],"outputs":[{"name":"","type":"uint64","internalType":"uint64"}],"stateMutability":"view"},{"type":"function","name":"owner","inputs":[],"outputs":[{"name":"","type":"address","internalType":"address"}],"stateMutability":"view"},{"type":"function","name":"pause","inputs":[{"name":"newPausedStatus","type":"uint256","internalType":"uint256"}],"outputs":[],"stateMutability":"nonpayable"},{"type":"function","name":"pauseAll","inputs":[],"outputs":[],"stateMutability":"nonpayable"},{"type":"function","name":"paused","inputs":[{"name":"index","type":"uint8","internalType":"uint8"}],"outputs":[{"name":"","type":"bool","internalType":"bool"}],"stateMutability":"view"},{"type":"function","name":"paused","inputs":[],"outputs":[{"name":"","type":"uint256","internalType":"uint256"}],"stateMutability":"view"},{"type":"function","name":"pauserRegistry","inputs":[],"outputs":[{"name":"","type":"address","internalType":"contract IPauserRegistry"}],"stateMutability":"view"},{"type":"function","name":"renounceOwnership","inputs":[],"outputs":[],"stateMutability":"nonpayable"},{"type":"function","name":"setInitialOperatorSet","inputs":[{"name":"operators","type":"tuple[]","internalType":"struct RollupOperators.Operator[]","components":[{"name":"pubkey","type":"tuple","internalType":"struct BN254.G1Point","components":[{"name":"X","type":"uint256","internalType":"uint256"},{"name":"Y","type":"uint256","internalType":"uint256"}]},{"name":"weight","type":"uint128","internalType":"uint128"}]},{"name":"_nextOperatorUpdateId","type":"uint64","internalType":"uint64"}],"outputs":[],"stateMutability":"nonpayable"},{"type":"function","name":"setPauserRegistry","inputs":[{"name":"newPauserRegistry","type":"address","internalType":"contract IPauserRegistry"}],"outputs":[],"stateMutability":"nonpayable"},{"type":"function","name":"setQuorumThreshold","inputs":[{"name":"newQuorumThreshold","type":"uint128","internalType":"uint128"}],"outputs":[],"stateMutability":"nonpayable"},{"type":"function","name":"transferOwnership","inputs":[{"name":"newOwner","type":"address","internalType":"address"}],"outputs":[],"stateMutability":"nonpayable"},{"type":"function","name":"unpause","inputs":[{"name":"newPausedStatus","type":"uint256","internalType":"uint256"}],"outputs":[],"stateMutability":"nonpayable"},{"type":"function","name":"updateAndGetStorageValue","inputs":[{"name":"message","type":"tuple","internalType":"struct StateRootUpdate.Message","components":[{"name":"rollupId","type":"uint32","internalType":"uint32"},{"name":"blockHeight","type":"uint64","internalType":"uint64"},{"name":"timestamp","type":"uint64","internalType":"uint64"},{"name":"nearDaTransactionId","type":"bytes32","internalType":"bytes32"},{"name":"nearDaCommitment","type":"bytes32","internalType":"bytes32"},{"name":"stateRoot","type":"bytes32","internalType":"bytes32"}]},{"name":"proofParams","type":"tuple","internalType":"struct SFFLRegistryBase.ProofParams","components":[{"name":"target","type":"address","internalType":"address"},{"name":"storageKey","type":"bytes32","internalType":"bytes32"},{"name":"stateTrieWitness","type":"bytes","internalType":"bytes"},{"name":"storageTrieWitness","type":"bytes","internalType":"bytes"}]},{"name":"agreement","type":"bytes","internalType":"bytes"}],"outputs":[{"name":"","type":"bytes32","internalType":"bytes32"}],"stateMutability":"nonpayable"},{"type":"function","name":"updateOperatorSet","inputs":[{"name":"message","type":"tuple","internalType":"struct OperatorSetUpdate.Message","components":[{"name":"id","type":"uint64","internalType":"uint64"},{"name":"timestamp","type":"uint64","internalType":"uint64"},{"name":"operators","type":"tuple[]","internalType":"struct RollupOperators.Operator[]","components":[{"name":"pubkey","type":"tuple","internalType":"struct BN254.G1Point","components":[{"name":"X","type":"uint256","internalType":"uint256"},{"name":"Y","type":"uint256","internalType":"uint256"}]},{"name":"weight","type":"uint128","internalType":"uint128"}]}]},{"name":"signatureInfo","type":"tuple","internalType":"struct RollupOperators.SignatureInfo","components":[{"name":"nonSignerPubkeys","type":"tuple[]","internalType":"struct BN254.G1Point[]","components":[{"name":"X","type":"uint256","internalType":"uint256"},{"name":"Y","type":"uint256","internalType":"uint256"}]},{"name":"apkG2","type":"tuple","internalType":"struct BN254.G2Point","components":[{"name":"X","type":"uint256[2]","internalType":"uint256[2]"},{"name":"Y","type":"uint256[2]","internalType":"uint256[2]"}]},{"name":"sigma","type":"tuple","internalType":"struct BN254.G1Point","components":[{"name":"X","type":"uint256","internalType":"uint256"},{"name":"Y","type":"uint256","internalType":"uint256"}]}]}],"outputs":[],"stateMutability":"nonpayable"},{"type":"function","name":"updateStateRoot","inputs":[{"name":"message","type":"tuple","internalType":"struct StateRootUpdate.Message","components":[{"name":"rollupId","type":"uint32","internalType":"uint32"},{"name":"blockHeight","type":"uint64","internalType":"uint64"},{"name":"timestamp","type":"uint64","internalType":"uint64"},{"name":"nearDaTransactionId","type":"bytes32","internalType":"bytes32"},{"name":"nearDaCommitment","type":"bytes32","internalType":"bytes32"},{"name":"stateRoot","type":"bytes32","internalType":"bytes32"}]},{"name":"signatureInfo","type":"tuple","internalType":"struct RollupOperators.SignatureInfo","components":[{"name":"nonSignerPubkeys","type":"tuple[]","internalType":"struct BN254.G1Point[]","components":[{"name":"X","type":"uint256","internalType":"uint256"},{"name":"Y","type":"uint256","internalType":"uint256"}]},{"name":"apkG2","type":"tuple","internalType":"struct BN254.G2Point","components":[{"name":"X","type":"uint256[2]","internalType":"uint256[2]"},{"name":"Y","type":"uint256[2]","internalType":"uint256[2]"}]},{"name":"sigma","type":"tuple","internalType":"struct BN254.G1Point","components":[{"name":"X","type":"uint256","internalType":"uint256"},{"name":"Y","type":"uint256","internalType":"uint256"}]}]}],"outputs":[],"stateMutability":"nonpayable"},{"type":"event","name":"Initialized","inputs":[{"name":"version","type":"uint8","indexed":false,"internalType":"uint8"}],"anonymous":false},{"type":"event","name":"OwnershipTransferred","inputs":[{"name":"previousOwner","type":"address","indexed":true,"internalType":"address"},{"name":"newOwner","type":"address","indexed":true,"internalType":"address"}],"anonymous":false},{"type":"event","name":"Paused","inputs":[{"name":"account","type":"address","indexed":true,"internalType":"address"},{"name":"newPausedStatus","type":"uint256","indexed":false,"internalType":"uint256"}],"anonymous":false},{"type":"event","name":"PauserRegistrySet","inputs":[{"name":"pauserRegistry","type":"address","indexed":false,"internalType":"contract IPauserRegistry"},{"name":"newPauserRegistry","type":"address","indexed":false,"internalType":"contract IPauserRegistry"}],"anonymous":false},{"type":"event","name":"StateRootUpdated","inputs":[{"name":"rollupId","type":"uint32","indexed":true,"internalType":"uint32"},{"name":"blockHeight","type":"uint64","indexed":true,"internalType":"uint64"},{"name":"stateRoot","type":"bytes32","indexed":false,"internalType":"bytes32"}],"anonymous":false},{"type":"event","name":"Unpaused","inputs":[{"name":"account","type":"address","indexed":true,"internalType":"address"},{"name":"newPausedStatus","type":"uint256","indexed":false,"internalType":"uint256"}],"anonymous":false}],"bytecode":{"object":"0x60806040523480156200001157600080fd5b506200001c62000022565b620000e4565b600054610100900460ff16156200008f5760405162461bcd60e51b815260206004820152602760248201527f496e697469616c697a61626c653a20636f6e747261637420697320696e697469604482015266616c697a696e6760c81b606482015260840160405180910390fd5b60005460ff9081161015620000e2576000805460ff191660ff9081179091556040519081527f7f26b83ff96e1f2b6a682f133852f6798a09c465da95921460cefb38474024989060200160405180910390a15b565b6143c280620000f46000396000f3fe608060405234801561001057600080fd5b50600436106101845760003560e01c8063715018a6116100d9578063d5d4bb5a11610087578063d5d4bb5a1461036c578063dd64766e1461037f578063e0f5d9f014610392578063ef024458146103bd578063f2fde38b146103c4578063f4db0571146103d7578063fabc1cbc146103df57600080fd5b8063715018a6146102f457806382616b7b146102fc578063886f11951461030f5780638da5cb5b1461032257806390540c3714610333578063b128aeee14610346578063b3a9e53b1461035957600080fd5b80632db52ea5116101365780632db52ea5146102425780632f65284e146102555780634afa71b914610276578063595c6a671461028e5780635ac86ab7146102965780635c975abb146102c95780636f5b9918146102d157600080fd5b80630510c1911461018957806306aba0e1146101a857806310d67a2f146101cd578063136439dd146101e25780631df9e1d2146101f55780631fb4d41114610208578063245a7bfc1461021b575b600080fd5b610191600181565b60405160ff90911681526020015b60405180910390f35b60cd546001600160801b03165b6040516001600160801b03909116815260200161019f565b6101e06101db366004613746565b6103f2565b005b6101e06101f0366004613763565b6104ae565b6101e0610203366004613794565b6105db565b6101e06102163660046137ec565b6106cc565b60ce5461023590600160401b90046001600160a01b031681565b60405161019f919061383a565b6101e0610250366004613865565b610755565b610268610263366004613892565b610768565b60405190815260200161019f565b60cd54600160801b90046001600160801b03166101b5565b6101e0610887565b6102b96102a4366004613935565b606654600160ff9092169190911b9081161490565b604051901515815260200161019f565b606654610268565b6102d9610941565b6040805182518152602092830151928101929092520161019f565b6101e0610964565b6101e061030a366004613958565b610978565b606554610235906001600160a01b031681565b6033546001600160a01b0316610235565b6101e06103413660046139b1565b610a9d565b6101e0610354366004613aff565b610bed565b610268610367366004613bd3565b610cd1565b61026861037a366004613c06565b610d02565b6101b561038d366004613763565b610e5b565b60ce546103a5906001600160401b031681565b6040516001600160401b03909116815260200161019f565b60646101b5565b6101e06103d2366004613746565b610e78565b610191600081565b6101e06103ed366004613763565b610eee565b606560009054906101000a90046001600160a01b03166001600160a01b031663eab66d7a6040518163ffffffff1660e01b8152600401602060405180830381865afa158015610445573d6000803e3d6000fd5b505050506040513d601f19601f820116820180604052508101906104699190613c4a565b6001600160a01b0316336001600160a01b0316146104a25760405162461bcd60e51b815260040161049990613c67565b60405180910390fd5b6104ab81611045565b50565b60655460405163237dfb4760e11b81526001600160a01b03909116906346fbf68e906104de90339060040161383a565b602060405180830381865afa1580156104fb573d6000803e3d6000fd5b505050506040513d601f19601f8201168201806040525081019061051f9190613cb1565b61053b5760405162461bcd60e51b815260040161049990613cd3565b606654818116146105af5760405162461bcd60e51b815260206004820152603860248201527f5061757361626c652e70617573653a20696e76616c696420617474656d707420604482015277746f20756e70617573652066756e6374696f6e616c69747960401b6064820152608401610499565b6066819055604051818152339060008051602061434d833981519152906020015b60405180910390a250565b6105e361113c565b60ce546001600160401b03166105fc6020830183613d1b565b6001600160401b0316146106225760405162461bcd60e51b815260040161049990613d36565b61062f6020820182613d1b565b61063a906001613d76565b60ce805467ffffffffffffffff19166001600160401b03929092169190911790556104ab61066b6040830183613da1565b808060200260200160405190810160405280939291908181526020016000905b828210156106b7576106a860608302860136819003810190613df0565b8152602001906001019061068b565b505050505060ca61119690919063ffffffff16565b606654600190600290811614156106f55760405162461bcd60e51b815260040161049990613e0c565b61070a6107018461139f565b60ca9084611420565b6107265760405162461bcd60e51b815260040161049990613e3f565b6107506107366020850185613e67565b6107466040860160208701613d1b565b8560a0013561180a565b505050565b61075d61113c565b6104ab60ca82611870565b60006060850135158015906107805750608085013515155b6107c75760405162461bcd60e51b8152602060048201526018602482015277115b5c1d1e48139150548811104818dbdb5b5a5d1b595b9d60421b6044820152606401610499565b60006097816107d96020890189613e67565b63ffffffff1663ffffffff16815260200190815260200160002060008760200160208101906108089190613d1b565b6001600160401b0316815260208101919091526040016000205490508061087357826108685760405162461bcd60e51b815260206004820152600f60248201526e115b5c1d1e481859dc99595b595b9d608a1b6044820152606401610499565b610873868585611929565b61087d8686610d02565b9695505050505050565b60655460405163237dfb4760e11b81526001600160a01b03909116906346fbf68e906108b790339060040161383a565b602060405180830381865afa1580156108d4573d6000803e3d6000fd5b505050506040513d601f19601f820116820180604052508101906108f89190613cb1565b6109145760405162461bcd60e51b815260040161049990613cd3565b6000196066819055604051908152339060008051602061434d8339815191529060200160405180910390a2565b61094961361d565b506040805180820190915260cb54815260cc54602082015290565b61096c61113c565b610976600061193a565b565b606654600090600190811614156109a15760405162461bcd60e51b815260040161049990613e0c565b60ce546001600160401b03166109ba6020850185613d1b565b6001600160401b0316146109e05760405162461bcd60e51b815260040161049990613d36565b6109ec6107018461198c565b610a085760405162461bcd60e51b815260040161049990613e3f565b610a156020840184613d1b565b610a20906001613d76565b60ce805467ffffffffffffffff19166001600160401b0392909216919091179055610750610a516040850185613da1565b808060200260200160405190810160405280939291908181526020016000905b828210156106b757610a8e60608302860136819003810190613df0565b81526020019060010190610a71565b600054610100900460ff1615808015610abd5750600054600160ff909116105b80610ad75750303b158015610ad7575060005460ff166001145b610b3a5760405162461bcd60e51b815260206004820152602e60248201527f496e697469616c697a61626c653a20636f6e747261637420697320616c72656160448201526d191e481a5b9a5d1a585b1a5e995960921b6064820152608401610499565b6000805460ff191660011790558015610b5d576000805461ff0019166101001790555b610b688260006119c0565b610b718461193a565b610b7c60ca86611870565b60ce8054600160401b600160e01b031916600160401b6001600160a01b038616021790558015610be6576000805461ff0019169055604051600181527f7f26b83ff96e1f2b6a682f133852f6798a09c465da95921460cefb38474024989060200160405180910390a15b5050505050565b60ce54600160401b90046001600160a01b03163314610c495760405162461bcd60e51b815260206004820152601860248201527729b2b73232b91034b9903737ba1030b3b3b932b3b0ba37b960411b6044820152606401610499565b60cd546001600160801b031615610ca25760405162461bcd60e51b815260206004820181905260248201527f4f70657261746f722073657420616c726561647920696e697469616c697a65646044820152606401610499565b610cad60ca83611196565b60ce805467ffffffffffffffff19166001600160401b039290921691909117905550565b63ffffffff821660009081526097602090815260408083206001600160401b03851684529091529020545b92915050565b600080609781610d156020870187613e67565b63ffffffff1663ffffffff1681526020019081526020016000206000856020016020810190610d449190613d1b565b6001600160401b03166001600160401b031681526020019081526020016000205490508360a001358114610db45760405162461bcd60e51b81526020600482015260176024820152764d69736d61746368696e6720737461746520726f6f747360481b6044820152606401610499565b610e53610dc46020850185613746565b602085013583610dd76040880188613e82565b8080601f016020809104026020016040519081016040528093929190818152602001838380828437600092019190915250610e19925050506060890189613e82565b8080601f016020809104026020016040519081016040528093929190818152602001838380828437600092019190915250611a9892505050565b949350505050565b600081815260ca60205260408120546001600160801b0316610cfc565b610e8061113c565b6001600160a01b038116610ee55760405162461bcd60e51b815260206004820152602660248201527f4f776e61626c653a206e6577206f776e657220697320746865207a65726f206160448201526564647265737360d01b6064820152608401610499565b6104ab8161193a565b606560009054906101000a90046001600160a01b03166001600160a01b031663eab66d7a6040518163ffffffff1660e01b8152600401602060405180830381865afa158015610f41573d6000803e3d6000fd5b505050506040513d601f19601f82011682018060405250810190610f659190613c4a565b6001600160a01b0316336001600160a01b031614610f955760405162461bcd60e51b815260040161049990613c67565b60665419811960665419161461100e5760405162461bcd60e51b815260206004820152603860248201527f5061757361626c652e756e70617573653a20696e76616c696420617474656d706044820152777420746f2070617573652066756e6374696f6e616c69747960401b6064820152608401610499565b606681905560405181815233907f3582d1828e26bf56bd801502bc021ac0bc8afb57c826e4986b45593c8fad389c906020016105d0565b6001600160a01b0381166110d35760405162461bcd60e51b815260206004820152604960248201527f5061757361626c652e5f73657450617573657252656769737472793a206e657760448201527f50617573657252656769737472792063616e6e6f7420626520746865207a65726064820152686f206164647265737360b81b608482015260a401610499565b606554604080516001600160a01b03928316815291831660208301527f6e9fcd539896fca60e8b0f01dd580233e48a6b0f7df013b89ba7f565869acdb6910160405180910390a1606580546001600160a01b0319166001600160a01b0392909216919091179055565b6033546001600160a01b031633146109765760405162461bcd60e51b815260206004820181905260248201527f4f776e61626c653a2063616c6c6572206973206e6f7420746865206f776e65726044820152606401610499565b61119e613637565b60408051808201909152600184015481526002840154602082015260038401546001600160801b031660005b8451811015611364578481815181106111e5576111e5613ec8565b6020026020010151935060006112108560000151805160009081526020918201519091526040902090565b60008181526020898152604090912054908701519192506001600160801b03908116911681141561127c5760405162461bcd60e51b81526020600482015260166024820152754f70657261746f7220697320757020746f206461746560501b6044820152606401610499565b602086015161128b8286613ede565b6112959190613f06565b6020878101516000858152918b9052604090912080546001600160801b0319166001600160801b0392831617905590945081166112e05785516112d9908690611bd3565b945061130c565b60208601516001600160801b031661130c576113096113028760000151611c6a565b8690611bd3565b94505b6020808701516040516001600160801b03909116815283917f7714c619c02393ccf44c3de606bec5c80ae7a6077504b74887fb39f335e98adc910160405180910390a25050808061135c90613f28565b9150506111ca565b506003850180546001600160801b0319166001600160801b039290921691909117905580516001850155602001516002909301929092555050565b60007f482a38e491413194a63664d1808926c0e075bf3aeee17b4a07878c670a8936c5826040516020016113d39190613f43565b60405160208183030381529060405280519060200120604051602001611403929190918252602082015260400190565b604051602081830303815290604052805190602001209050919050565b6040805180820190915260008082526020820181905260038501549091906001600160801b0316806114945760405162461bcd60e51b815260206004820181905260248201527f4f70657261746f722073657420776173206e6f7420696e697469616c697a65646044820152606401610499565b60006114a08580613fad565b90506001600160401b038111156114b9576114b9613a0b565b6040519080825280602002602001820160405280156114e2578160200160208202803683370190505b50905060005b6114f28680613fad565b90508110156116cb576115456115088780613fad565b8381811061151857611518613ec8565b90506040020180360381019061152e9190613ff6565b805160009081526020918201519091526040902090565b82828151811061155757611557613ec8565b602090810291909101015280156115ee5781611574600183614012565b8151811061158457611584613ec8565b602002602001015160001c8282815181106115a1576115a1613ec8565b602002602001015160001c116115ee5760405162461bcd60e51b8152602060048201526012602482015271141d589ad95e5cc81b9bdd081cdbdc9d195960721b6044820152606401610499565b600088600001600084848151811061160857611608613ec8565b6020908102919091018101518252810191909152604001600020546001600160801b03169050806116765760405162461bcd60e51b815260206004820152601860248201527713dc195c985d1bdc881a185cc81e995c9bc81dd95a59da1d60421b6044820152606401610499565b6116a96116838880613fad565b8481811061169357611693613ec8565b9050604002018036038101906113029190613ff6565b94506116b58185614012565b93505080806116c390613f28565b9150506114e8565b506116f96116d884611c6a565b6040805180820190915260018a0154815260028a0154602082015290611bd3565b925060008061172c8886611715368b90038b0160208c01614098565b611727368c90038c0160a08d01613ff6565b611cf9565b915091508161177d5760405162461bcd60e51b815260206004820152601e60248201527f50616972696e6720707265636f6d70696c652063616c6c206661696c656400006044820152606401610499565b806117c15760405162461bcd60e51b815260206004820152601460248201527314da59db985d1d5c99481a5cc81a5b9d985b1a5960621b6044820152606401610499565b60038901546064906117e5906001600160801b03600160801b8204811691166140d7565b6117ef919061411c565b6001600160801b0316841015955050505050505b9392505050565b63ffffffff831660008181526097602090815260408083206001600160401b03871680855290835292819020859055518481529192917fca7171570f4ca232f925661b810636124eaf784a25b7c14e6b34c95b814dfdd8910160405180910390a3505050565b60646001600160801b03821611156118dc5760405162461bcd60e51b815260206004820152602960248201527f51756f72756d207468726573686f6c642067726561746572207468616e2064656044820152683737b6b4b730ba37b960b91b6064820152608401610499565b6003820180546001600160801b03808416600160801b810291909216179091556040517f2b71b2179969a005ac6fd9c196134b364ff40069a17dd72faa96c4a00e73e9f490600090a25050565b8161193484826106cc565b50505050565b603380546001600160a01b038381166001600160a01b0319831681179093556040519116919082907f8be0079c531659141344cd1fd0a4f28419497f9722a3daafe3b4186f6b6457e090600090a35050565b60007f6c53db212565b8956d5fc704eb18d9f2372ce861f785ef64103f74e6c2154b3f826040516020016113d39190614142565b6065546001600160a01b03161580156119e157506001600160a01b03821615155b611a635760405162461bcd60e51b815260206004820152604760248201527f5061757361626c652e5f696e697469616c697a655061757365723a205f696e6960448201527f7469616c697a6550617573657228292063616e206f6e6c792062652063616c6c6064820152666564206f6e636560c81b608482015260a401610499565b6066819055604051818152339060008051602061434d8339815191529060200160405180910390a2611a9482611045565b5050565b6040516bffffffffffffffffffffffff19606087901b16602082015260009081908190611ad8906034016040516020818303038152906040528688611e58565b9150915081611b225760405162461bcd60e51b81526020600482015260166024820152751058d8dbdd5b9d08191bd95cc81b9bdd08195e1a5cdd60521b6044820152606401610499565b6000611b2d82611e81565b9050600080611b628a604051602001611b4891815260200190565b604051602081830303815290604052888560400151611e58565b9150915081611bb35760405162461bcd60e51b815260206004820152601c60248201527f53746f726167652076616c756520646f6573206e6f74206578697374000000006044820152606401610499565b611bc4611bbf82611f45565b611f58565b9b9a5050505050505050505050565b611bdb61361d565b611be3613657565b835181526020808501518183015283516040808401919091529084015160608301526000908360808460066107d05a03fa9050808015611c2257611c24565bfe5b5080611c625760405162461bcd60e51b815260206004820152600d60248201526c1958cb5859190b59985a5b1959609a1b6044820152606401610499565b505092915050565b611c7261361d565b8151158015611c8357506020820151155b15611ca1575050604080518082019091526000808252602082015290565b60405180604001604052808360000151815260200160008051602061436d8339815191528460200151611cd4919061421a565b611cec9060008051602061436d833981519152614012565b905292915050565b919050565b60008060007f30644e72e131a029b85045b68181585d2833e84879b9709143e1f593f000000187876000015188602001518860000151600060028110611d4157611d41613ec8565b60200201518951600160200201518a60200151600060028110611d6657611d66613ec8565b60200201518b60200151600160028110611d8257611d82613ec8565b602090810291909101518c518d830151604051611ddf9a99989796959401988952602089019790975260408801959095526060870193909352608086019190915260a085015260c084015260e08301526101008201526101200190565b6040516020818303038152906040528051906020012060001c611e02919061421a565b9050611e4a611e146113028884611f87565b611e1c612003565b611e40611e3185611e2b6120c3565b90611f87565b611e3a8c6120e4565b90611bd3565b886201d4c0612168565b909890975095505050505050565b600060606000611e678661238c565b9050611e748186866123be565b9250925050935093915050565b604080516080810182526000808252602082018190529181018290526060810182905290611eae83612499565b90506040518060800160405280611ede83600081518110611ed157611ed1613ec8565b60200260200101516124ac565b8152602001611ef983600181518110611ed157611ed1613ec8565b8152602001611f2183600281518110611f1457611f14613ec8565b60200260200101516124b3565b8152602001611f3c83600381518110611f1457611f14613ec8565b90529392505050565b6060610cfc611f5383612555565b612582565b6000806000602084511115611f6e576020611f71565b83515b60209485015194036008029390931c9392505050565b611f8f61361d565b611f97613675565b835181526020808501519082015260408082018490526000908360608460076107d05a03fa9050808015611c22575080611c625760405162461bcd60e51b815260206004820152600d60248201526c1958cb5b5d5b0b59985a5b1959609a1b6044820152606401610499565b61200b613693565b50604080516080810182527f198e9393920d483a7260bfb731fb5d25f1aa493335a9e71297e485b7aef312c28183019081527f1800deef121f1e76426a00665e5c4479674322d4f75edadd46debd5cd992f6ed6060830152815281518083019092527f275dc4a288d1afb3cbb1ac09187524c7db36395df7be3b99e673b13a075a65ec82527f1d9befcd05a5323e6da4d435f3b617cdb3af83285c2df711ef39c01571827f9d60208381019190915281019190915290565b6120cb61361d565b5060408051808201909152600181526002602082015290565b6120ec61361d565b6000808061210860008051602061436d8339815191528661421a565b90505b6121148161260d565b909350915060008051602061436d83398151915282830983141561214e576040805180820190915290815260208101919091529392505050565b60008051602061436d83398151915260018208905061210b565b60408051808201825286815260208082018690528251808401909352868352820184905260009182919061219a6136b8565b60005b600281101561235f5760006121b382600661422e565b90508482600281106121c7576121c7613ec8565b602002015151836121d983600061424d565b600c81106121e9576121e9613ec8565b602002015284826002811061220057612200613ec8565b60200201516020015183826001612217919061424d565b600c811061222757612227613ec8565b602002015283826002811061223e5761223e613ec8565b602002015151518361225183600261424d565b600c811061226157612261613ec8565b602002015283826002811061227857612278613ec8565b602002015151600160200201518361229183600361424d565b600c81106122a1576122a1613ec8565b60200201528382600281106122b8576122b8613ec8565b6020020151602001516000600281106122d3576122d3613ec8565b6020020151836122e483600461424d565b600c81106122f4576122f4613ec8565b602002015283826002811061230b5761230b613ec8565b60200201516020015160016002811061232657612326613ec8565b60200201518361233783600561424d565b600c811061234757612347613ec8565b6020020152508061235781613f28565b91505061219d565b506123686136d7565b60006020826101808560088cfa9151919c9115159b50909950505050505050505050565b606081805190602001206040516020016123a891815260200190565b6040516020818303038152906040529050919050565b6000606060006123cd8561268f565b905060008060006123df848a89612789565b815192955090935091501580806123f35750815b61243f5760405162461bcd60e51b815260206004820152601a60248201527f50726f76696465642070726f6f6620697320696e76616c69642e0000000000006044820152606401610499565b60008161245b5760405180602001604052806000815250612487565b6124878661246a600188614012565b8151811061247a5761247a613ec8565b6020026020010151612bad565b919b919a509098505050505050505050565b6060610cfc6124a783612555565b612bd7565b6000610cfc825b60006021826000015111156124da5760405162461bcd60e51b815260040161049990614265565b60008060006124e885612dbd565b9194509250905060008160018111156125035761250361429c565b146125205760405162461bcd60e51b815260040161049990614265565b6000838660200151612532919061424d565b8051909150602084101561087d5760208490036101000a90049695505050505050565b60408051808201825260008082526020918201528151808301909252825182529182019181019190915290565b6060600080600061259285612dbd565b9194509250905060008160018111156125ad576125ad61429c565b146125f55760405162461bcd60e51b815260206004820152601860248201527724b73b30b634b21029262810313cba32b9903b30b63ab29760411b6044820152606401610499565b612604856020015184846130f3565b95945050505050565b6000808060008051602061436d833981519152600360008051602061436d8339815191528660008051602061436d833981519152888909090890506000612683827f0c19139cb84c680a6e14116da060561765e05aa45a1c72a34f082305b61f3f5260008051602061436d8339815191526131d1565b91959194509092505050565b6060600061269c83612499565b9050600081516001600160401b038111156126b9576126b9613a0b565b6040519080825280602002602001820160405280156126fe57816020015b60408051808201909152606080825260208201528152602001906001900390816126d75790505b50905060005b825181101561278157600061273184838151811061272457612724613ec8565b6020026020010151612582565b9050604051806040016040528082815260200161274d83612499565b81525083838151811061276257612762613ec8565b602002602001018190525050808061277990613f28565b915050612704565b509392505050565b6000606081808061279987613279565b905060008690506000806127c0604051806040016040528060608152602001606081525090565b60005b8c51811015612b85578c81815181106127de576127de613ec8565b6020026020010151915082846127f4919061424d565b935061280160018861424d565b965083612859578151805160209091012085146128545760405162461bcd60e51b8152602060048201526011602482015270092dcecc2d8d2c840e4dedee840d0c2e6d607b1b6044820152606401610499565b612916565b8151516020116128bb578151805160209091012085146128545760405162461bcd60e51b815260206004820152601b60248201527f496e76616c6964206c6172676520696e7465726e616c206861736800000000006044820152606401610499565b846128c983600001516133b3565b146129165760405162461bcd60e51b815260206004820152601a60248201527f496e76616c696420696e7465726e616c206e6f646520686173680000000000006044820152606401610499565b6129226010600161424d565b826020015151141561299b57855184141561293c57612b85565b600086858151811061295057612950613ec8565b602001015160f81c60f81b60f81c9050600083602001518260ff168151811061297b5761297b613ec8565b6020026020010151905061298e816133db565b9650600194505050612b73565b60028260200151511415612b2b5760006129b483613411565b90506000816000815181106129cb576129cb613ec8565b016020015160f81c905060006129e26002836142b2565b6129ed9060026142d4565b905060006129fe848360ff16613435565b90506000612a0c8b8a613435565b90506000612a1a838361346b565b905060ff851660021480612a31575060ff85166003145b15612a6b57808351148015612a465750808251145b15612a5857612a55818b61424d565b99505b50600160ff1b9950612b85945050505050565b60ff85161580612a7e575060ff85166001145b15612ad45782518114612a9e5750600160ff1b9950612b85945050505050565b612ac58860200151600181518110612ab857612ab8613ec8565b60200260200101516133db565b9a509750612b73945050505050565b60405162461bcd60e51b815260206004820152602660248201527f52656365697665642061206e6f6465207769746820616e20756e6b6e6f776e206044820152650e0e4caccd2f60d31b6064820152608401610499565b60405162461bcd60e51b815260206004820152601d60248201527f526563656976656420616e20756e706172736561626c65206e6f64652e0000006044820152606401610499565b80612b7d81613f28565b9150506127c3565b50600160ff1b841486612b988786613435565b909e909d50909b509950505050505050505050565b60208101518051606091610cfc91612bc790600190614012565b8151811061272457612724613ec8565b6060600080612be584612dbd565b91935090915060019050816001811115612c0157612c0161429c565b14612c485760405162461bcd60e51b815260206004820152601760248201527624b73b30b634b210292628103634b9ba103b30b63ab29760491b6044820152606401610499565b6040805160208082526104208201909252600091816020015b6040805180820190915260008082526020820152815260200190600190039081612c615790505090506000835b8651811015612db25760208210612cfa5760405162461bcd60e51b815260206004820152602a60248201527f50726f766964656420524c50206c6973742065786365656473206d6178206c6960448201526939ba103632b733ba341760b11b6064820152608401610499565b600080612d376040518060400160405280858c60000151612d1b9190614012565b8152602001858c60200151612d30919061424d565b9052612dbd565b509150915060405180604001604052808383612d53919061424d565b8152602001848b60200151612d68919061424d565b815250858581518110612d7d57612d7d613ec8565b6020908102919091010152612d9360018561424d565b9350612d9f818361424d565b612da9908461424d565b92505050612c8e565b508152949350505050565b600080600080846000015111612e105760405162461bcd60e51b81526020600482015260186024820152772926281034ba32b69031b0b73737ba10313290373ab6361760411b6044820152606401610499565b6020840151805160001a607f8111612e355760006001600094509450945050506130ec565b60b78111612ead576000612e4a608083614012565b905080876000015111612e9b5760405162461bcd60e51b815260206004820152601960248201527824b73b30b634b2102926281039b437b93a1039ba3934b7339760391b6044820152606401610499565b600195509350600092506130ec915050565b60bf8111612f97576000612ec260b783614012565b905080876000015111612f175760405162461bcd60e51b815260206004820152601f60248201527f496e76616c696420524c50206c6f6e6720737472696e67206c656e6774682e006044820152606401610499565b600183015160208290036101000a9004612f31818361424d565b885111612f7b5760405162461bcd60e51b815260206004820152601860248201527724b73b30b634b210292628103637b7339039ba3934b7339760411b6044820152606401610499565b612f8682600161424d565b96509450600093506130ec92505050565b60f7811161300c576000612fac60c083614012565b905080876000015111612ffb5760405162461bcd60e51b815260206004820152601760248201527624b73b30b634b2102926281039b437b93a103634b9ba1760491b6044820152606401610499565b6001955093508492506130ec915050565b600061301960f783614012565b90508087600001511161306e5760405162461bcd60e51b815260206004820152601d60248201527f496e76616c696420524c50206c6f6e67206c697374206c656e6774682e0000006044820152606401610499565b600183015160208290036101000a9004613088818361424d565b8851116130d05760405162461bcd60e51b815260206004820152601660248201527524b73b30b634b210292628103637b733903634b9ba1760511b6044820152606401610499565b6130db82600161424d565b96509450600193506130ec92505050565b9193909250565b60606000826001600160401b0381111561310f5761310f613a0b565b6040519080825280601f01601f191660200182016040528015613139576020820181803683370190505b50905080516000141561314d579050611803565b6000613159858761424d565b90506020820160005b61316d6020876142f7565b8110156131a4578251825261318360208461424d565b925061319060208361424d565b91508061319c81613f28565b915050613162565b5060006001602087066020036101000a039050808251168119845116178252839450505050509392505050565b6000806131dc6136d7565b6131e46136f5565b602080825281810181905260408201819052606082018890526080820187905260a082018690528260c08360056107d05a03fa9250828015611c2257508261326e5760405162461bcd60e51b815260206004820152601a60248201527f424e3235342e6578704d6f643a2063616c6c206661696c7572650000000000006044820152606401610499565b505195945050505050565b606060008251600261328b919061422e565b6001600160401b038111156132a2576132a2613a0b565b6040519080825280601f01601f1916602001820160405280156132cc576020820181803683370190505b50905060005b83518110156133ac5760048482815181106132ef576132ef613ec8565b01602001516001600160f81b031916901c8261330c83600261422e565b8151811061331c5761331c613ec8565b60200101906001600160f81b031916908160001a905350601084828151811061334757613347613ec8565b0160200151613359919060f81c6142b2565b60f81b8261336883600261422e565b61337390600161424d565b8151811061338357613383613ec8565b60200101906001600160f81b031916908160001a905350806133a481613f28565b9150506132d2565b5092915050565b60006020825110156133c757506020015190565b81806020019051810190610cfc919061430b565b600060606020836000015110156133fc576133f5836134e7565b9050613408565b61340583612582565b90505b611803816133b3565b6060610cfc613430836020015160008151811061272457612724613ec8565b613279565b6060825182106134545750604080516020810190915260008152610cfc565b61180383838486516134669190614012565b6134f2565b6000805b80845111801561347f5750808351115b80156134d0575082818151811061349857613498613ec8565b602001015160f81c60f81b6001600160f81b0319168482815181106134bf576134bf613ec8565b01602001516001600160f81b031916145b1561180357806134df81613f28565b91505061346f565b6060610cfc82613607565b60608161350081601f61424d565b101561351e5760405162461bcd60e51b815260040161049990614324565b82613529838261424d565b10156135475760405162461bcd60e51b815260040161049990614324565b613551828461424d565b845110156135955760405162461bcd60e51b8152602060048201526011602482015270736c6963655f6f75744f66426f756e647360781b6044820152606401610499565b6060821580156135b457604051915060008252602082016040526135fe565b6040519150601f8416801560200281840101858101878315602002848b0101015b818310156135ed5780518352602092830192016135d5565b5050858452601f01601f1916604052505b50949350505050565b6060610cfc8260200151600084600001516130f3565b604051806040016040528060008152602001600081525090565b604051806040016040528061364a61361d565b8152600060209091015290565b60405180608001604052806004906020820280368337509192915050565b60405180606001604052806003906020820280368337509192915050565b60405180604001604052806136a6613713565b81526020016136b3613713565b905290565b604051806101800160405280600c906020820280368337509192915050565b60405180602001604052806001906020820280368337509192915050565b6040518060c001604052806006906020820280368337509192915050565b60405180604001604052806002906020820280368337509192915050565b6001600160a01b03811681146104ab57600080fd5b60006020828403121561375857600080fd5b813561180381613731565b60006020828403121561377557600080fd5b5035919050565b60006060828403121561378e57600080fd5b50919050565b6000602082840312156137a657600080fd5b81356001600160401b038111156137bc57600080fd5b610e538482850161377c565b600060c0828403121561378e57600080fd5b600060e0828403121561378e57600080fd5b60008060e083850312156137ff57600080fd5b61380984846137c8565b915060c08301356001600160401b0381111561382457600080fd5b613830858286016137da565b9150509250929050565b6001600160a01b0391909116815260200190565b80356001600160801b0381168114611cf457600080fd5b60006020828403121561387757600080fd5b6118038261384e565b60006080828403121561378e57600080fd5b60008060008061010085870312156138a957600080fd5b6138b386866137c8565b935060c08501356001600160401b03808211156138cf57600080fd5b6138db88838901613880565b945060e08701359150808211156138f157600080fd5b818701915087601f83011261390557600080fd5b81358181111561391457600080fd5b88602082850101111561392657600080fd5b95989497505060200194505050565b60006020828403121561394757600080fd5b813560ff8116811461180357600080fd5b6000806040838503121561396b57600080fd5b82356001600160401b038082111561398257600080fd5b61398e8683870161377c565b935060208501359150808211156139a457600080fd5b50613830858286016137da565b600080600080608085870312156139c757600080fd5b6139d08561384e565b935060208501356139e081613731565b925060408501356139f081613731565b91506060850135613a0081613731565b939692955090935050565b634e487b7160e01b600052604160045260246000fd5b604080519081016001600160401b0381118282101715613a4357613a43613a0b565b60405290565b604051601f8201601f191681016001600160401b0381118282101715613a7157613a71613a0b565b604052919050565b600060408284031215613a8b57600080fd5b613a93613a21565b9050813581526020820135602082015292915050565b600060608284031215613abb57600080fd5b613ac3613a21565b9050613acf8383613a79565b8152613add6040830161384e565b602082015292915050565b80356001600160401b0381168114611cf457600080fd5b60008060408385031215613b1257600080fd5b82356001600160401b0380821115613b2957600080fd5b818501915085601f830112613b3d57600080fd5b8135602082821115613b5157613b51613a0b565b613b5f818360051b01613a49565b82815281810193506060928302850182019289841115613b7e57600080fd5b948201945b83861015613ba457613b958a87613aa9565b85529485019493820193613b83565b509550613bb2878201613ae8565b9450505050509250929050565b803563ffffffff81168114611cf457600080fd5b60008060408385031215613be657600080fd5b613bef83613bbf565b9150613bfd60208401613ae8565b90509250929050565b60008060e08385031215613c1957600080fd5b613c2384846137c8565b915060c08301356001600160401b03811115613c3e57600080fd5b61383085828601613880565b600060208284031215613c5c57600080fd5b815161180381613731565b6020808252602a908201527f6d73672e73656e646572206973206e6f74207065726d697373696f6e6564206160408201526939903ab73830bab9b2b960b11b606082015260800190565b600060208284031215613cc357600080fd5b8151801515811461180357600080fd5b60208082526028908201527f6d73672e73656e646572206973206e6f74207065726d697373696f6e6564206160408201526739903830bab9b2b960c11b606082015260800190565b600060208284031215613d2d57600080fd5b61180382613ae8565b60208082526010908201526f15dc9bdb99c81b595cdcd859d948125160821b604082015260600190565b634e487b7160e01b600052601160045260246000fd5b60006001600160401b03808316818516808303821115613d9857613d98613d60565b01949350505050565b6000808335601e19843603018112613db857600080fd5b8301803591506001600160401b03821115613dd257600080fd5b6020019150606081023603821315613de957600080fd5b9250929050565b600060608284031215613e0257600080fd5b6118038383613aa9565b60208082526019908201527814185d5cd8589b194e881a5b99195e081a5cc81c185d5cd959603a1b604082015260600190565b6020808252600e908201526d145d5bdc9d5b481b9bdd081b595d60921b604082015260600190565b600060208284031215613e7957600080fd5b61180382613bbf565b6000808335601e19843603018112613e9957600080fd5b8301803591506001600160401b03821115613eb357600080fd5b602001915036819003821315613de957600080fd5b634e487b7160e01b600052603260045260246000fd5b60006001600160801b0383811690831681811015613efe57613efe613d60565b039392505050565b60006001600160801b03828116848216808303821115613d9857613d98613d60565b6000600019821415613f3c57613f3c613d60565b5060010190565b60c0810163ffffffff613f5584613bbf565b168252613f6460208401613ae8565b6001600160401b03808216602085015280613f8160408701613ae8565b1660408501525050606083013560608301526080830135608083015260a083013560a083015292915050565b6000808335601e19843603018112613fc457600080fd5b8301803591506001600160401b03821115613fde57600080fd5b6020019150600681901b3603821315613de957600080fd5b60006040828403121561400857600080fd5b6118038383613a79565b60008282101561402457614024613d60565b500390565b600082601f83011261403a57600080fd5b604051604081018181106001600160401b038211171561405c5761405c613a0b565b806040525080604084018581111561407357600080fd5b845b8181101561408d578035835260209283019201614075565b509195945050505050565b6000608082840312156140aa57600080fd5b6140b2613a21565b6140bc8484614029565b81526140cb8460408501614029565b60208201529392505050565b60006001600160801b03828116848216811515828404821116156140fd576140fd613d60565b02949350505050565b634e487b7160e01b600052601260045260246000fd5b60006001600160801b038381168061413657614136614106565b92169190910492915050565b60006020808352608083016001600160401b038061415f87613ae8565b168386015261416f838701613ae8565b604082821681880152808801359150601e1988360301821261419057600080fd5b908701908135838111156141a357600080fd5b6060935083810236038913156141b857600080fd5b87840184905293849052908401926000919060a088015b8184101561420d578535815286860135878201526001600160801b036141f684880161384e565b1681840152948401946001939093019284016141cf565b9998505050505050505050565b60008261422957614229614106565b500690565b600081600019048311821515161561424857614248613d60565b500290565b6000821982111561426057614260613d60565b500190565b6020808252601a908201527f496e76616c696420524c5020627974657333322076616c75652e000000000000604082015260600190565b634e487b7160e01b600052602160045260246000fd5b600060ff8316806142c5576142c5614106565b8060ff84160691505092915050565b600060ff821660ff8416808210156142ee576142ee613d60565b90039392505050565b60008261430657614306614106565b500490565b60006020828403121561431d57600080fd5b5051919050565b6020808252600e908201526d736c6963655f6f766572666c6f7760901b60408201526060019056feab40a374bc51de372200a8bc981af8c9ecdc08dfdaef0bb6e09f88f3c616ef3d30644e72e131a029b85045b68181585d97816a916871ca8d3c208c16d87cfd47a26469706673582212208d5a00bdfaa5c82d49e9710d06eeebb3a877dc10568c3e210691372ed37183ab64736f6c634300080c0033","linkReferences":{}},"methodIdentifiers":{"PAUSED_UPDATE_OPERATOR_SET()":"f4db0571","PAUSED_UPDATE_STATE_ROOT()":"0510c191","THRESHOLD_DENOMINATOR()":"ef024458","aggregator()":"245a7bfc","forceOperatorSetUpdate((uint64,uint64,((uint256,uint256),uint128)[]))":"1df9e1d2","getApk()":"6f5b9918","getOperatorWeight(bytes32)":"dd64766e","getQuorumThreshold()":"4afa71b9","getStateRoot(uint32,uint64)":"b3a9e53b","getStorageValue((uint32,uint64,uint64,bytes32,bytes32,bytes32),(address,bytes32,bytes,bytes))":"d5d4bb5a","getTotalWeight()":"06aba0e1","initialize(uint128,address,address,address)":"90540c37","nextOperatorUpdateId()":"e0f5d9f0","owner()":"8da5cb5b","pause(uint256)":"136439dd","pauseAll()":"595c6a67","paused()":"5c975abb","paused(uint8)":"5ac86ab7","pauserRegistry()":"886f1195","renounceOwnership()":"715018a6","setInitialOperatorSet(((uint256,uint256),uint128)[],uint64)":"b128aeee","setPauserRegistry(address)":"10d67a2f","setQuorumThreshold(uint128)":"2db52ea5","transferOwnership(address)":"f2fde38b","unpause(uint256)":"fabc1cbc","updateAndGetStorageValue((uint32,uint64,uint64,bytes32,bytes32,bytes32),(address,bytes32,bytes,bytes),bytes)":"2f65284e","updateOperatorSet((uint64,uint64,((uint256,uint256),uint128)[]),((uint256,uint256)[],(uint256[2],uint256[2]),(uint256,uint256)))":"82616b7b","updateStateRoot((uint32,uint64,uint64,bytes32,bytes32,bytes32),((uint256,uint256)[],(uint256[2],uint256[2]),(uint256,uint256)))":"1fb4d411"},"id":128}