{
  "address": "0x54b350E10aE76D30684566c366b440577f651D82",
  "abi": [
    {
      "inputs": [
        {
          "internalType": "address",
          "name": "_endpoint",
          "type": "address"
        },
        {
          "internalType": "address",
          "name": "_delegate",
          "type": "address"
        }
      ],
      "stateMutability": "nonpayable",
      "type": "constructor"
    },
    {
      "inputs": [],
      "name": "InvalidDelegate",
      "type": "error"
    },
    {
      "inputs": [],
      "name": "InvalidEndpointCall",
      "type": "error"
    },
    {
      "inputs": [],
      "name": "LzTokenUnavailable",
      "type": "error"
    },
    {
      "inputs": [
        {
          "internalType": "uint32",
          "name": "eid",
          "type": "uint32"
        }
      ],
      "name": "NoPeer",
      "type": "error"
    },
    {
      "inputs": [
        {
          "internalType": "uint256",
          "name": "msgValue",
          "type": "uint256"
        }
      ],
      "name": "NotEnoughNative",
      "type": "error"
    },
    {
      "inputs": [
        {
          "internalType": "address",
          "name": "addr",
          "type": "address"
        }
      ],
      "name": "OnlyEndpoint",
      "type": "error"
    },
    {
      "inputs": [
        {
          "internalType": "uint32",
          "name": "eid",
          "type": "uint32"
        },
        {
          "internalType": "bytes32",
          "name": "sender",
          "type": "bytes32"
        }
      ],
      "name": "OnlyPeer",
      "type": "error"
    },
    {
      "inputs": [
        {
          "internalType": "address",
          "name": "owner",
          "type": "address"
        }
      ],
      "name": "OwnableInvalidOwner",
      "type": "error"
    },
    {
      "inputs": [
        {
          "internalType": "address",
          "name": "account",
          "type": "address"
        }
      ],
      "name": "OwnableUnauthorizedAccount",
      "type": "error"
    },
    {
      "inputs": [
        {
          "internalType": "address",
          "name": "token",
          "type": "address"
        }
      ],
      "name": "SafeERC20FailedOperation",
      "type": "error"
    },
    {
      "anonymous": false,
      "inputs": [
        {
          "indexed": true,
          "internalType": "address",
          "name": "previousOwner",
          "type": "address"
        },
        {
          "indexed": true,
          "internalType": "address",
          "name": "newOwner",
          "type": "address"
        }
      ],
      "name": "OwnershipTransferred",
      "type": "event"
    },
    {
      "anonymous": false,
      "inputs": [
        {
          "indexed": false,
          "internalType": "uint32",
          "name": "eid",
          "type": "uint32"
        },
        {
          "indexed": false,
          "internalType": "bytes32",
          "name": "peer",
          "type": "bytes32"
        }
      ],
      "name": "PeerSet",
      "type": "event"
    },
    {
      "inputs": [
        {
          "components": [
            {
              "internalType": "uint32",
              "name": "srcEid",
              "type": "uint32"
            },
            {
              "internalType": "bytes32",
              "name": "sender",
              "type": "bytes32"
            },
            {
              "internalType": "uint64",
              "name": "nonce",
              "type": "uint64"
            }
          ],
          "internalType": "struct Origin",
          "name": "origin",
          "type": "tuple"
        }
      ],
      "name": "allowInitializePath",
      "outputs": [
        {
          "internalType": "bool",
          "name": "",
          "type": "bool"
        }
      ],
      "stateMutability": "view",
      "type": "function"
    },
    {
      "inputs": [],
      "name": "data",
      "outputs": [
        {
          "internalType": "string",
          "name": "",
          "type": "string"
        }
      ],
      "stateMutability": "view",
      "type": "function"
    },
    {
      "inputs": [],
      "name": "endpoint",
      "outputs": [
        {
          "internalType": "contract ILayerZeroEndpointV2",
          "name": "",
          "type": "address"
        }
      ],
      "stateMutability": "view",
      "type": "function"
    },
    {
      "inputs": [
        {
          "components": [
            {
              "internalType": "uint32",
              "name": "srcEid",
              "type": "uint32"
            },
            {
              "internalType": "bytes32",
              "name": "sender",
              "type": "bytes32"
            },
            {
              "internalType": "uint64",
              "name": "nonce",
              "type": "uint64"
            }
          ],
          "internalType": "struct Origin",
          "name": "",
          "type": "tuple"
        },
        {
          "internalType": "bytes",
          "name": "",
          "type": "bytes"
        },
        {
          "internalType": "address",
          "name": "_sender",
          "type": "address"
        }
      ],
      "name": "isComposeMsgSender",
      "outputs": [
        {
          "internalType": "bool",
          "name": "",
          "type": "bool"
        }
      ],
      "stateMutability": "view",
      "type": "function"
    },
    {
      "inputs": [
        {
          "components": [
            {
              "internalType": "uint32",
              "name": "srcEid",
              "type": "uint32"
            },
            {
              "internalType": "bytes32",
              "name": "sender",
              "type": "bytes32"
            },
            {
              "internalType": "uint64",
              "name": "nonce",
              "type": "uint64"
            }
          ],
          "internalType": "struct Origin",
          "name": "_origin",
          "type": "tuple"
        },
        {
          "internalType": "bytes32",
          "name": "_guid",
          "type": "bytes32"
        },
        {
          "internalType": "bytes",
          "name": "_message",
          "type": "bytes"
        },
        {
          "internalType": "address",
          "name": "_executor",
          "type": "address"
        },
        {
          "internalType": "bytes",
          "name": "_extraData",
          "type": "bytes"
        }
      ],
      "name": "lzReceive",
      "outputs": [],
      "stateMutability": "payable",
      "type": "function"
    },
    {
      "inputs": [
        {
          "internalType": "uint32",
          "name": "",
          "type": "uint32"
        },
        {
          "internalType": "bytes32",
          "name": "",
          "type": "bytes32"
        }
      ],
      "name": "nextNonce",
      "outputs": [
        {
          "internalType": "uint64",
          "name": "nonce",
          "type": "uint64"
        }
      ],
      "stateMutability": "view",
      "type": "function"
    },
    {
      "inputs": [],
      "name": "oAppVersion",
      "outputs": [
        {
          "internalType": "uint64",
          "name": "senderVersion",
          "type": "uint64"
        },
        {
          "internalType": "uint64",
          "name": "receiverVersion",
          "type": "uint64"
        }
      ],
      "stateMutability": "pure",
      "type": "function"
    },
    {
      "inputs": [],
      "name": "owner",
      "outputs": [
        {
          "internalType": "address",
          "name": "",
          "type": "address"
        }
      ],
      "stateMutability": "view",
      "type": "function"
    },
    {
      "inputs": [
        {
          "internalType": "uint32",
          "name": "eid",
          "type": "uint32"
        }
      ],
      "name": "peers",
      "outputs": [
        {
          "internalType": "bytes32",
          "name": "peer",
          "type": "bytes32"
        }
      ],
      "stateMutability": "view",
      "type": "function"
    },
    {
      "inputs": [
        {
          "internalType": "uint32",
          "name": "_dstEid",
          "type": "uint32"
        },
        {
          "internalType": "string",
          "name": "_message",
          "type": "string"
        },
        {
          "internalType": "bytes",
          "name": "_options",
          "type": "bytes"
        },
        {
          "internalType": "bool",
          "name": "_payInLzToken",
          "type": "bool"
        }
      ],
      "name": "quote",
      "outputs": [
        {
          "components": [
            {
              "internalType": "uint256",
              "name": "nativeFee",
              "type": "uint256"
            },
            {
              "internalType": "uint256",
              "name": "lzTokenFee",
              "type": "uint256"
            }
          ],
          "internalType": "struct MessagingFee",
          "name": "fee",
          "type": "tuple"
        }
      ],
      "stateMutability": "view",
      "type": "function"
    },
    {
      "inputs": [],
      "name": "renounceOwnership",
      "outputs": [],
      "stateMutability": "nonpayable",
      "type": "function"
    },
    {
      "inputs": [
        {
          "internalType": "uint32",
          "name": "_dstEid",
          "type": "uint32"
        },
        {
          "internalType": "string",
          "name": "_message",
          "type": "string"
        },
        {
          "internalType": "bytes",
          "name": "_options",
          "type": "bytes"
        }
      ],
      "name": "send",
      "outputs": [
        {
          "components": [
            {
              "internalType": "bytes32",
              "name": "guid",
              "type": "bytes32"
            },
            {
              "internalType": "uint64",
              "name": "nonce",
              "type": "uint64"
            },
            {
              "components": [
                {
                  "internalType": "uint256",
                  "name": "nativeFee",
                  "type": "uint256"
                },
                {
                  "internalType": "uint256",
                  "name": "lzTokenFee",
                  "type": "uint256"
                }
              ],
              "internalType": "struct MessagingFee",
              "name": "fee",
              "type": "tuple"
            }
          ],
          "internalType": "struct MessagingReceipt",
          "name": "receipt",
          "type": "tuple"
        }
      ],
      "stateMutability": "payable",
      "type": "function"
    },
    {
      "inputs": [
        {
          "internalType": "address",
          "name": "_delegate",
          "type": "address"
        }
      ],
      "name": "setDelegate",
      "outputs": [],
      "stateMutability": "nonpayable",
      "type": "function"
    },
    {
      "inputs": [
        {
          "internalType": "uint32",
          "name": "_eid",
          "type": "uint32"
        },
        {
          "internalType": "bytes32",
          "name": "_peer",
          "type": "bytes32"
        }
      ],
      "name": "setPeer",
      "outputs": [],
      "stateMutability": "nonpayable",
      "type": "function"
    },
    {
      "inputs": [
        {
          "internalType": "address",
          "name": "newOwner",
          "type": "address"
        }
      ],
      "name": "transferOwnership",
      "outputs": [],
      "stateMutability": "nonpayable",
      "type": "function"
    }
  ],
  "transactionHash": "0xdb1a28bbfaf8f8d5ab6825a665a924e593da9de0c5649aefff810357f1d31701",
  "args": [
    "0x6EDCE65403992e310A62460808c4b910D972f10f",
    "0x96E341c7E7537333AFa153d196038C6D086d5d2b"
  ],
  "numDeployments": 3,
  "solcInputHash": "6e267ad209b523b5db9591b68bbd936f",
  "bytecode": "0x60e0604052601460a09081527f6e6f7468696e672072656365697665642079657400000000000000000000000060c0526002906200003e908262000241565b503480156200004c57600080fd5b5060405162001714380380620017148339810160408190526200006f916200032a565b81818181806001600160a01b038116620000a357604051631e4fbdf760e01b81526000600482015260240160405180910390fd5b620000ae816200014a565b506001600160a01b038083166080528116620000dd57604051632d618d8160e21b815260040160405180910390fd5b60805160405163ca5eb5e160e01b81526001600160a01b0383811660048301529091169063ca5eb5e190602401600060405180830381600087803b1580156200012557600080fd5b505af11580156200013a573d6000803e3d6000fd5b5050505050505050505062000362565b600080546001600160a01b038381166001600160a01b0319831681178455604051919092169283917f8be0079c531659141344cd1fd0a4f28419497f9722a3daafe3b4186f6b6457e09190a35050565b634e487b7160e01b600052604160045260246000fd5b600181811c90821680620001c557607f821691505b602082108103620001e657634e487b7160e01b600052602260045260246000fd5b50919050565b601f8211156200023c576000816000526020600020601f850160051c81016020861015620002175750805b601f850160051c820191505b81811015620002385782815560010162000223565b5050505b505050565b81516001600160401b038111156200025d576200025d6200019a565b62000275816200026e8454620001b0565b84620001ec565b602080601f831160018114620002ad5760008415620002945750858301515b600019600386901b1c1916600185901b17855562000238565b600085815260208120601f198616915b82811015620002de57888601518255948401946001909101908401620002bd565b5085821015620002fd5787850151600019600388901b60f8161c191681555b5050505050600190811b01905550565b80516001600160a01b03811681146200032557600080fd5b919050565b600080604083850312156200033e57600080fd5b62000349836200030d565b915062000359602084016200030d565b90509250929050565b60805161136c620003a86000396000818161015b0152818161034b015281816104f1015281816107f5015281816108e3015281816109da0152610a91015261136c6000f3fe6080604052600436106100e85760003560e01c806382413eac1161008a578063e0539e5811610059578063e0539e58146102bc578063f2fde38b146102dc578063f77e5dd3146102fc578063ff7bd03d1461032957600080fd5b806382413eac146102045780638da5cb5b14610243578063bb0b6a5314610261578063ca5eb5e11461029c57600080fd5b80635e280f11116100c65780635e280f1114610149578063715018a61461019557806373d4a13a146101aa5780637d25a05e146101cc57600080fd5b806313137d65146100ed57806317442b70146101025780633400288b14610129575b600080fd5b6101006100fb366004610c3b565b610349565b005b34801561010e57600080fd5b50604080516001815260026020820152015b60405180910390f35b34801561013557600080fd5b50610100610144366004610cf3565b610409565b34801561015557600080fd5b5061017d7f000000000000000000000000000000000000000000000000000000000000000081565b6040516001600160a01b039091168152602001610120565b3480156101a157600080fd5b5061010061041f565b3480156101b657600080fd5b506101bf610433565b6040516101209190610d63565b3480156101d857600080fd5b506101ec6101e7366004610cf3565b6104c1565b6040516001600160401b039091168152602001610120565b34801561021057600080fd5b5061023361021f366004610d7d565b6001600160a01b0381163014949350505050565b6040519015158152602001610120565b34801561024f57600080fd5b506000546001600160a01b031661017d565b34801561026d57600080fd5b5061028e61027c366004610de3565b60016020526000908152604090205481565b604051908152602001610120565b3480156102a857600080fd5b506101006102b7366004610dfe565b6104ca565b6102cf6102ca366004610ec6565b610550565b6040516101209190610f3c565b3480156102e857600080fd5b506101006102f7366004610dfe565b6105d9565b34801561030857600080fd5b5061031c610317366004610f7e565b610617565b6040516101209190611012565b34801561033557600080fd5b50610233610344366004611029565b61065b565b7f00000000000000000000000000000000000000000000000000000000000000006001600160a01b03163314610399576040516391ac5e4f60e01b81523360048201526024015b60405180910390fd5b602087018035906103b3906103ae908a610de3565b610691565b146103f1576103c56020880188610de3565b60405163309afaf360e21b815263ffffffff909116600482015260208801356024820152604401610390565b610400878787878787876106cd565b50505050505050565b6104116106f0565b61041b828261071d565b5050565b6104276106f0565b6104316000610772565b565b6002805461044090611045565b80601f016020809104026020016040519081016040528092919081815260200182805461046c90611045565b80156104b95780601f1061048e576101008083540402835291602001916104b9565b820191906000526020600020905b81548152906001019060200180831161049c57829003601f168201915b505050505081565b60005b92915050565b6104d26106f0565b60405163ca5eb5e160e01b81526001600160a01b0382811660048301527f0000000000000000000000000000000000000000000000000000000000000000169063ca5eb5e190602401600060405180830381600087803b15801561053557600080fd5b505af1158015610549573d6000803e3d6000fd5b5050505050565b610558610b7f565b60008460405160200161056b9190610d63565b60408051601f198184030181526020601f870181900481028401810190925285835292506105cf9188918491908890889081908401838280828437600092018290525060408051808201909152348152602081019190915292503391506107c29050565b9695505050505050565b6105e16106f0565b6001600160a01b03811661060b57604051631e4fbdf760e01b815260006004820152602401610390565b61061481610772565b50565b604080518082019091526000808252602082015260008460405160200161063e9190610d63565b60405160208183030381529060405290506105cf868286866108cd565b60006020820180359060019083906106739086610de3565b63ffffffff1681526020810191909152604001600020541492915050565b63ffffffff8116600090815260016020526040812054806104c45760405163f6ff4fb760e01b815263ffffffff84166004820152602401610390565b6106d984860186611079565b6002906106e69082611106565b5050505050505050565b6000546001600160a01b031633146104315760405163118cdaa760e01b8152336004820152602401610390565b63ffffffff8216600081815260016020908152604091829020849055815192835282018390527f238399d427b947898edb290f5ff0f9109849b1c3ba196a42e35f00c50a54b98b910160405180910390a15050565b600080546001600160a01b038381166001600160a01b0319831681178455604051919092169283917f8be0079c531659141344cd1fd0a4f28419497f9722a3daafe3b4186f6b6457e09190a35050565b6107ca610b7f565b60006107d984600001516109ae565b6020850151909150156107f3576107f384602001516109d6565b7f00000000000000000000000000000000000000000000000000000000000000006001600160a01b0316632637a450826040518060a001604052808b63ffffffff1681526020016108438c610691565b81526020018a815260200189815260200160008960200151111515815250866040518463ffffffff1660e01b815260040161087f9291906111c5565b60806040518083038185885af115801561089d573d6000803e3d6000fd5b50505050506040513d601f19601f820116820180604052508101906108c2919061128c565b979650505050505050565b60408051808201909152600080825260208201527f00000000000000000000000000000000000000000000000000000000000000006001600160a01b031663ddc28c586040518060a001604052808863ffffffff16815260200161093089610691565b8152602001878152602001868152602001851515815250306040518363ffffffff1660e01b81526004016109659291906111c5565b6040805180830381865afa158015610981573d6000803e3d6000fd5b505050506040513d601f19601f820116820180604052508101906109a591906112fd565b95945050505050565b60008134146109d2576040516304fb820960e51b8152346004820152602401610390565b5090565b60007f00000000000000000000000000000000000000000000000000000000000000006001600160a01b031663e4fe1d946040518163ffffffff1660e01b8152600401602060405180830381865afa158015610a36573d6000803e3d6000fd5b505050506040513d601f19601f82011682018060405250810190610a5a9190611319565b90506001600160a01b038116610a83576040516329b99a9560e11b815260040160405180910390fd5b6040805133602482018190527f00000000000000000000000000000000000000000000000000000000000000006001600160a01b03818116604485015260648085018890528551808603909101815260849094019094526020830180516001600160e01b03166323b872dd60e01b17905261041b938516928690610b08908590610b0e565b50505050565b600080602060008451602086016000885af180610b31576040513d6000823e3d81fd5b50506000513d91508115610b49578060011415610b56565b6001600160a01b0384163b155b15610b0857604051635274afe760e01b81526001600160a01b0385166004820152602401610390565b60405180606001604052806000801916815260200160006001600160401b03168152602001610bc1604051806040016040528060008152602001600081525090565b905290565b600060608284031215610bd857600080fd5b50919050565b60008083601f840112610bf057600080fd5b5081356001600160401b03811115610c0757600080fd5b602083019150836020828501011115610c1f57600080fd5b9250929050565b6001600160a01b038116811461061457600080fd5b600080600080600080600060e0888a031215610c5657600080fd5b610c608989610bc6565b96506060880135955060808801356001600160401b0380821115610c8357600080fd5b610c8f8b838c01610bde565b909750955060a08a01359150610ca482610c26565b90935060c08901359080821115610cba57600080fd5b50610cc78a828b01610bde565b989b979a50959850939692959293505050565b803563ffffffff81168114610cee57600080fd5b919050565b60008060408385031215610d0657600080fd5b610d0f83610cda565b946020939093013593505050565b6000815180845260005b81811015610d4357602081850181015186830182015201610d27565b506000602082860101526020601f19601f83011685010191505092915050565b602081526000610d766020830184610d1d565b9392505050565b60008060008060a08587031215610d9357600080fd5b610d9d8686610bc6565b935060608501356001600160401b03811115610db857600080fd5b610dc487828801610bde565b9094509250506080850135610dd881610c26565b939692955090935050565b600060208284031215610df557600080fd5b610d7682610cda565b600060208284031215610e1057600080fd5b8135610d7681610c26565b634e487b7160e01b600052604160045260246000fd5b60006001600160401b0380841115610e4b57610e4b610e1b565b604051601f8501601f19908116603f01168101908282118183101715610e7357610e73610e1b565b81604052809350858152868686011115610e8c57600080fd5b858560208301376000602087830101525050509392505050565b600082601f830112610eb757600080fd5b610d7683833560208501610e31565b60008060008060608587031215610edc57600080fd5b610ee585610cda565b935060208501356001600160401b0380821115610f0157600080fd5b610f0d88838901610ea6565b94506040870135915080821115610f2357600080fd5b50610f3087828801610bde565b95989497509550505050565b6000608082019050825182526001600160401b0360208401511660208301526040830151610f77604084018280518252602090810151910152565b5092915050565b60008060008060808587031215610f9457600080fd5b610f9d85610cda565b935060208501356001600160401b0380821115610fb957600080fd5b610fc588838901610ea6565b94506040870135915080821115610fdb57600080fd5b508501601f81018713610fed57600080fd5b610ffc87823560208401610e31565b92505060608501358015158114610dd857600080fd5b8151815260208083015190820152604081016104c4565b60006060828403121561103b57600080fd5b610d768383610bc6565b600181811c9082168061105957607f821691505b602082108103610bd857634e487b7160e01b600052602260045260246000fd5b60006020828403121561108b57600080fd5b81356001600160401b038111156110a157600080fd5b6110ad84828501610ea6565b949350505050565b601f821115611101576000816000526020600020601f850160051c810160208610156110de5750805b601f850160051c820191505b818110156110fd578281556001016110ea565b5050505b505050565b81516001600160401b0381111561111f5761111f610e1b565b6111338161112d8454611045565b846110b5565b602080601f83116001811461116857600084156111505750858301515b600019600386901b1c1916600185901b1785556110fd565b600085815260208120601f198616915b8281101561119757888601518255948401946001909101908401611178565b50858210156111b55787850151600019600388901b60f8161c191681555b5050505050600190811b01905550565b6040815263ffffffff8351166040820152602083015160608201526000604084015160a060808401526111fb60e0840182610d1d565b90506060850151603f198483030160a08501526112188282610d1d565b60809690960151151560c08501525050506001600160a01b039190911660209091015290565b60006040828403121561125057600080fd5b604051604081018181106001600160401b038211171561127257611272610e1b565b604052825181526020928301519281019290925250919050565b60006080828403121561129e57600080fd5b604051606081016001600160401b0382821081831117156112c1576112c1610e1b565b81604052845183526020850151915080821682146112de57600080fd5b5060208201526112f1846040850161123e565b60408201529392505050565b60006040828403121561130f57600080fd5b610d76838361123e565b60006020828403121561132b57600080fd5b8151610d7681610c2656fea26469706673582212203017c944155c3f234bb3739e3866ebf99c20e7b7c0028c651c3564360cf944be64736f6c63430008160033",
  "devdoc": {
    "errors": {
      "OwnableInvalidOwner(address)": [
        {
          "details": "The owner is not a valid owner account. (eg. `address(0)`)"
        }
      ],
      "OwnableUnauthorizedAccount(address)": [
        {
          "details": "The caller account is not authorized to perform an operation."
        }
      ],
      "SafeERC20FailedOperation(address)": [
        {
          "details": "An operation with an ERC-20 token failed."
        }
      ]
    },
    "kind": "dev",
    "methods": {
      "allowInitializePath((uint32,bytes32,uint64))": {
        "details": "This indicates to the endpoint that the OApp has enabled msgs for this particular path to be received.This defaults to assuming if a peer has been set, its initialized. Can be overridden by the OApp if there is other logic to determine this.",
        "params": {
          "origin": "The origin information containing the source endpoint and sender address."
        },
        "returns": {
          "_0": "Whether the path has been initialized."
        }
      },
      "isComposeMsgSender((uint32,bytes32,uint64),bytes,address)": {
        "details": "_origin The origin information containing the source endpoint and sender address.  - srcEid: The source chain endpoint ID.  - sender: The sender address on the src chain.  - nonce: The nonce of the message._message The lzReceive payload.Applications can optionally choose to implement separate composeMsg senders that are NOT the bridging layer.The default sender IS the OAppReceiver implementer.",
        "params": {
          "_sender": "The sender address."
        },
        "returns": {
          "_0": "isSender Is a valid sender."
        }
      },
      "lzReceive((uint32,bytes32,uint64),bytes32,bytes,address,bytes)": {
        "details": "Entry point for receiving messages or packets from the endpoint.Entry point for receiving msg/packet from the LayerZero endpoint.",
        "params": {
          "_executor": "The address of the executor for the received message.",
          "_extraData": "Additional arbitrary data provided by the corresponding executor.",
          "_guid": "The unique identifier for the received LayerZero message.",
          "_message": "The payload of the received message.",
          "_origin": "The origin information containing the source endpoint and sender address.  - srcEid: The source chain endpoint ID.  - sender: The sender address on the src chain.  - nonce: The nonce of the message."
        }
      },
      "nextNonce(uint32,bytes32)": {
        "details": "_srcEid The source endpoint ID._sender The sender address.The path nonce starts from 1. If 0 is returned it means that there is NO nonce ordered enforcement.Is required by the off-chain executor to determine the OApp expects msg execution is ordered.This is also enforced by the OApp.By default this is NOT enabled. ie. nextNonce is hardcoded to return 0.",
        "returns": {
          "nonce": "The next nonce."
        }
      },
      "oAppVersion()": {
        "returns": {
          "receiverVersion": "The version of the OAppReceiver.sol implementation.",
          "senderVersion": "The version of the OAppSender.sol implementation."
        }
      },
      "owner()": {
        "details": "Returns the address of the current owner."
      },
      "quote(uint32,string,bytes,bool)": {
        "params": {
          "_dstEid": "Destination chain's endpoint ID.",
          "_message": "The message.",
          "_options": "Message execution options (e.g., for sending gas to destination).",
          "_payInLzToken": "Whether to return fee in ZRO token."
        },
        "returns": {
          "fee": "A `MessagingFee` struct containing the calculated gas fee in either the native token or ZRO token."
        }
      },
      "renounceOwnership()": {
        "details": "Leaves the contract without owner. It will not be possible to call `onlyOwner` functions. Can only be called by the current owner. NOTE: Renouncing ownership will leave the contract without an owner, thereby disabling any functionality that is only available to the owner."
      },
      "send(uint32,string,bytes)": {
        "details": "Encodes the message as bytes and sends it using the `_lzSend` internal function.",
        "params": {
          "_dstEid": "The endpoint ID of the destination chain.",
          "_message": "The message string to be sent.",
          "_options": "Additional options for message execution."
        },
        "returns": {
          "receipt": "A `MessagingReceipt` struct containing details of the message sent."
        }
      },
      "setDelegate(address)": {
        "details": "Only the owner/admin of the OApp can call this function.Provides the ability for a delegate to set configs, on behalf of the OApp, directly on the Endpoint contract.",
        "params": {
          "_delegate": "The address of the delegate to be set."
        }
      },
      "setPeer(uint32,bytes32)": {
        "details": "Only the owner/admin of the OApp can call this function.Indicates that the peer is trusted to send LayerZero messages to this OApp.Set this to bytes32(0) to remove the peer address.Peer is a bytes32 to accommodate non-evm chains.",
        "params": {
          "_eid": "The endpoint ID.",
          "_peer": "The address of the peer to be associated with the corresponding endpoint."
        }
      },
      "transferOwnership(address)": {
        "details": "Transfers ownership of the contract to a new account (`newOwner`). Can only be called by the current owner."
      }
    },
    "version": 1
  },
  "userdoc": {
    "kind": "user",
    "methods": {
      "allowInitializePath((uint32,bytes32,uint64))": {
        "notice": "Checks if the path initialization is allowed based on the provided origin."
      },
      "endpoint()": {
        "notice": "Retrieves the LayerZero endpoint associated with the OApp."
      },
      "isComposeMsgSender((uint32,bytes32,uint64),bytes,address)": {
        "notice": "Indicates whether an address is an approved composeMsg sender to the Endpoint."
      },
      "nextNonce(uint32,bytes32)": {
        "notice": "Retrieves the next nonce for a given source endpoint and sender address."
      },
      "oAppVersion()": {
        "notice": "Retrieves the OApp version information."
      },
      "peers(uint32)": {
        "notice": "Retrieves the peer (OApp) associated with a corresponding endpoint."
      },
      "quote(uint32,string,bytes,bool)": {
        "notice": "Quotes the gas needed to pay for the full omnichain transaction in native gas or ZRO token."
      },
      "send(uint32,string,bytes)": {
        "notice": "Sends a message from the source chain to a destination chain."
      },
      "setDelegate(address)": {
        "notice": "Sets the delegate address for the OApp."
      },
      "setPeer(uint32,bytes32)": {
        "notice": "Sets the peer address (OApp instance) for a corresponding endpoint."
      }
    },
    "version": 1
  },
  "storageLayout": {
    "storage": [
      {
        "astId": 1327,
        "contract": "contracts/TestingOApp.sol:TestingOApp",
        "label": "_owner",
        "offset": 0,
        "slot": "0",
        "type": "t_address"
      },
      {
        "astId": 64,
        "contract": "contracts/TestingOApp.sol:TestingOApp",
        "label": "peers",
        "offset": 0,
        "slot": "1",
        "type": "t_mapping(t_uint32,t_bytes32)"
      },
      {
        "astId": 2398,
        "contract": "contracts/TestingOApp.sol:TestingOApp",
        "label": "data",
        "offset": 0,
        "slot": "2",
        "type": "t_string_storage"
      }
    ],
    "types": {
      "t_address": {
        "encoding": "inplace",
        "label": "address",
        "numberOfBytes": "20"
      },
      "t_bytes32": {
        "encoding": "inplace",
        "label": "bytes32",
        "numberOfBytes": "32"
      },
      "t_mapping(t_uint32,t_bytes32)": {
        "encoding": "mapping",
        "key": "t_uint32",
        "label": "mapping(uint32 => bytes32)",
        "numberOfBytes": "32",
        "value": "t_bytes32"
      },
      "t_string_storage": {
        "encoding": "bytes",
        "label": "string",
        "numberOfBytes": "32"
      },
      "t_uint32": {
        "encoding": "inplace",
        "label": "uint32",
        "numberOfBytes": "4"
      }
    }
  }
}